{"abi":[{"type":"constructor","inputs":[{"name":"_dvnRegistryContract","type":"address","internalType":"address"},{"name":"_dvnAttestationContract","type":"address","internalType":"address"}],"stateMutability":"nonpayable"},{"type":"function","name":"ATTESTATION_TIMEOUT","inputs":[],"outputs":[{"name":"","type":"uint256","internalType":"uint256"}],"stateMutability":"view"},{"type":"function","name":"CONSENSUS_THRESHOLD_PERCENT","inputs":[],"outputs":[{"name":"","type":"uint256","internalType":"uint256"}],"stateMutability":"view"},{"type":"function","name":"MINIMUM_ATTESTATIONS","inputs":[],"outputs":[{"name":"","type":"uint256","internalType":"uint256"}],"stateMutability":"view"},{"type":"function","name":"consensusProcessed","inputs":[{"name":"","type":"bytes32","internalType":"bytes32"}],"outputs":[{"name":"","type":"bool","internalType":"bool"}],"stateMutability":"view"},{"type":"function","name":"deregisterStudio","inputs":[{"name":"studio","type":"address","internalType":"address"}],"outputs":[],"stateMutability":"nonpayable"},{"type":"function","name":"dvnAttestationContract","inputs":[],"outputs":[{"name":"","type":"address","internalType":"address"}],"stateMutability":"view"},{"type":"function","name":"dvnRegistryContract","inputs":[],"outputs":[{"name":"","type":"address","internalType":"address"}],"stateMutability":"view"},{"type":"function","name":"emergencyProcessConsensus","inputs":[{"name":"poaId","type":"bytes32","internalType":"bytes32"},{"name":"studioAddress","type":"address","internalType":"address"}],"outputs":[],"stateMutability":"nonpayable"},{"type":"function","name":"finalStatuses","inputs":[{"name":"","type":"bytes32","internalType":"bytes32"}],"outputs":[{"name":"","type":"uint8","internalType":"enum IStudioPolicy.PoAStatus"}],"stateMutability":"view"},{"type":"function","name":"getConsensusRequirements","inputs":[],"outputs":[{"name":"minAttestations","type":"uint256","internalType":"uint256"},{"name":"thresholdPercent","type":"uint256","internalType":"uint256"},{"name":"timeoutDuration","type":"uint256","internalType":"uint256"}],"stateMutability":"pure"},{"type":"function","name":"getConsensusStats","inputs":[],"outputs":[{"name":"totalProcessed","type":"uint256","internalType":"uint256"},{"name":"totalVerified","type":"uint256","internalType":"uint256"},{"name":"totalRejected","type":"uint256","internalType":"uint256"},{"name":"totalDisputed","type":"uint256","internalType":"uint256"}],"stateMutability":"view"},{"type":"function","name":"getPoAStatus","inputs":[{"name":"poaId","type":"bytes32","internalType":"bytes32"}],"outputs":[{"name":"status","type":"uint8","internalType":"enum IStudioPolicy.PoAStatus"}],"stateMutability":"view"},{"type":"function","name":"getRegisteredStudios","inputs":[],"outputs":[{"name":"studios","type":"address[]","internalType":"address[]"}],"stateMutability":"view"},{"type":"function","name":"getTimeRemaining","inputs":[{"name":"poaId","type":"bytes32","internalType":"bytes32"}],"outputs":[{"name":"timeRemaining","type":"uint256","internalType":"uint256"}],"stateMutability":"view"},{"type":"function","name":"isConsensusProcessed","inputs":[{"name":"poaId","type":"bytes32","internalType":"bytes32"}],"outputs":[{"name":"processed","type":"bool","internalType":"bool"}],"stateMutability":"view"},{"type":"function","name":"owner","inputs":[],"outputs":[{"name":"","type":"address","internalType":"address"}],"stateMutability":"view"},{"type":"function","name":"processConsensus","inputs":[{"name":"poaId","type":"bytes32","internalType":"bytes32"},{"name":"studioAddress","type":"address","internalType":"address"}],"outputs":[],"stateMutability":"nonpayable"},{"type":"function","name":"registerStudio","inputs":[{"name":"studio","type":"address","internalType":"address"},{"name":"studioName","type":"string","internalType":"string"}],"outputs":[],"stateMutability":"nonpayable"},{"type":"function","name":"registeredStudios","inputs":[{"name":"","type":"address","internalType":"address"}],"outputs":[{"name":"","type":"bool","internalType":"bool"}],"stateMutability":"view"},{"type":"function","name":"startSubmissionProcessing","inputs":[{"name":"poaId","type":"bytes32","internalType":"bytes32"},{"name":"studioAddress","type":"address","internalType":"address"}],"outputs":[],"stateMutability":"nonpayable"},{"type":"function","name":"studioList","inputs":[{"name":"","type":"uint256","internalType":"uint256"}],"outputs":[{"name":"","type":"address","internalType":"address"}],"stateMutability":"view"},{"type":"function","name":"submissionOpenTime","inputs":[{"name":"","type":"bytes32","internalType":"bytes32"}],"outputs":[{"name":"","type":"uint256","internalType":"uint256"}],"stateMutability":"view"},{"type":"function","name":"totalDisputedSubmissions","inputs":[],"outputs":[{"name":"","type":"uint256","internalType":"uint256"}],"stateMutability":"view"},{"type":"function","name":"totalProcessedSubmissions","inputs":[],"outputs":[{"name":"","type":"uint256","internalType":"uint256"}],"stateMutability":"view"},{"type":"function","name":"totalRejectedSubmissions","inputs":[],"outputs":[{"name":"","type":"uint256","internalType":"uint256"}],"stateMutability":"view"},{"type":"function","name":"totalVerifiedSubmissions","inputs":[],"outputs":[{"name":"","type":"uint256","internalType":"uint256"}],"stateMutability":"view"},{"type":"function","name":"transferOwnership","inputs":[{"name":"newOwner","type":"address","internalType":"address"}],"outputs":[],"stateMutability":"nonpayable"},{"type":"function","name":"updateContractReferences","inputs":[{"name":"_dvnRegistryContract","type":"address","internalType":"address"},{"name":"_dvnAttestationContract","type":"address","internalType":"address"}],"outputs":[],"stateMutability":"nonpayable"},{"type":"event","name":"ConsensusTimeoutReached","inputs":[{"name":"poaId","type":"bytes32","indexed":true,"internalType":"bytes32"},{"name":"timeoutTime","type":"uint256","indexed":false,"internalType":"uint256"},{"name":"attestationCount","type":"uint256","indexed":false,"internalType":"uint256"}],"anonymous":false},{"type":"event","name":"ProofOfAgencyFinalized","inputs":[{"name":"poaId","type":"bytes32","indexed":true,"internalType":"bytes32"},{"name":"status","type":"uint8","indexed":true,"internalType":"enum IStudioPolicy.PoAStatus"},{"name":"totalAttestations","type":"uint256","indexed":false,"internalType":"uint256"},{"name":"approvalCount","type":"uint256","indexed":false,"internalType":"uint256"},{"name":"rejectionCount","type":"uint256","indexed":false,"internalType":"uint256"}],"anonymous":false},{"type":"event","name":"RewardsDistributed","inputs":[{"name":"poaId","type":"bytes32","indexed":true,"internalType":"bytes32"},{"name":"verifiers","type":"address[]","indexed":false,"internalType":"address[]"},{"name":"totalReward","type":"uint256","indexed":false,"internalType":"uint256"}],"anonymous":false},{"type":"event","name":"StudioDeregistered","inputs":[{"name":"studio","type":"address","indexed":true,"internalType":"address"}],"anonymous":false},{"type":"event","name":"StudioRegistered","inputs":[{"name":"studio","type":"address","indexed":true,"internalType":"address"},{"name":"studioName","type":"string","indexed":false,"internalType":"string"}],"anonymous":false},{"type":"event","name":"SubmissionProcessingStarted","inputs":[{"name":"poaId","type":"bytes32","indexed":true,"internalType":"bytes32"},{"name":"studio","type":"address","indexed":true,"internalType":"address"},{"name":"startTime","type":"uint256","indexed":false,"internalType":"uint256"}],"anonymous":false}],"bytecode":{"object":"0x608034609057601f61177c38819003918201601f19168301916001600160401b038311848410176094578084926040948552833981010312609057604b602060458360a8565b920160a8565b60028054336001600160a01b0319918216179091555f80546001600160a01b03948516908316179055600180549290931691161790556040516116c090816100bc8239f35b5f80fd5b634e487b7160e01b5f52604160045260245ffd5b51906001600160a01b038216820360905756fe6080806040526004361015610012575f80fd5b5f905f3560e01c90816328b630c01461132a57508063327ef5a61461130d57806332be9ebc146112dc578063451a307f146112c15780634e64ad601461129a5780635015e436146110fd578063577dcfe6146110cb5780635bcaa22c1461109557806360f6e44014611079578063660062b314610fe45780636ad595ad14610ec15780637228353f14610e985780637dce96e114610e69578063856d320d14610e4b5780638da5cb5b14610e225780639e563ae014610de8578063b48831f814610dba578063b83bd30814610c0c578063bc1373c514610bf0578063c39fca7d14610add578063c64430b114610904578063c874605a146108c5578063d9c22190146108a7578063e39626e214610870578063e6fa0d5314610846578063ed454caf14610224578063f2fde38b146101985763f665fc9e14610152575f80fd5b34610195576020366003190112610195576004359060045482101561019557602061017c83611411565b905460405160039290921b1c6001600160a01b03168152f35b80fd5b5034610195576020366003190112610195576101b2611344565b600254906101ca336001600160a01b038416146114bd565b6001600160a01b03169081156101eb576001600160a01b0319161760025580f35b60405162461bcd60e51b815260206004820152601160248201527024b73b30b634b2103732bb9037bbb732b960791b6044820152606490fd5b50346101955760403660031901126101955760043561024161135a565b61024c82151561143d565b818352600660205260ff6040842054166107e95781835260056020526102776040842054151561157f565b6001600160a01b0381168352600360205260408320546102999060ff16611513565b828060018060a01b036001541660405182602082019163064fdacd60e21b8352876024820152602481526102ce604482611370565b51925af16102da6115c4565b90156107a5576040818051810103126105c8576040602082015191015180820191828111610791576003831085875260056020526040872054610258810180911161077d5742101590801581610776575b15610717578161070f575b506106da575b61034783838361161f565b93858752600660205260408720600160ff1982541617905585875260076020526040872060048610156106c65760ff198154169060ff87168092179055878060018060a01b0360015416604051826020820191632f3a92c760e01b83528c6024820152602481526103b9604482611370565b51925af16103c56115c4565b501561066e578791829182604051602081019263270c15c560e01b84528b60248301526044820152604481526103fc606482611370565b51925af16104086115c4565b501561061e576104196008546115f3565b60085585600185036105e4576104306009546115f3565b6009555b6105d05784927fe25caf7d29036350703c6c49ad9283a8eaa8eddc8d67045680d717f5b5eb6d209260609260405192835260208301526040820152a3818060018060a01b0360015416604051826020820191630d80d45d60e11b8352866024820152602481526104a5604482611370565b51925af16104b16115c4565b906104ba578280f35b80518101906020818184019303126105c85760208101519067ffffffffffffffff82116105cc570181603f820112156105c85760208101519167ffffffffffffffff83116105b4578260051b91604051936105186020850186611370565b8452602084019281016040019182116105b057604001915b81831061058c575050508051610544578280f35b61057d7f791622a38c02cfd64f1e4e56c811569f0d63e0a47e79211fdd66488f6a5598b4916040519182916040835260408301906113d5565b8560208301520390a25f808280f35b82516001600160a01b03811681036105ac57815260209283019201610530565b8680fd5b8580fd5b634e487b7160e01b85526041600452602485fd5b8380fd5b8480fd5b634e487b7160e01b86526021600452602486fd5b508560028503610601576105f9600a546115f3565b600a55610434565b50856003850361043457610616600b546115f3565b600b55610434565b60405162461bcd60e51b815260206004820152602260248201527f4661696c656420746f207570646174652073747564696f20506f412073746174604482015261757360f01b6064820152608490fd5b60405162461bcd60e51b815260206004820152602a60248201527f4661696c656420746f20636c6f7365207375626d697373696f6e20666f7220616044820152693a3a32b9ba30ba34b7b760b11b6064820152608490fd5b634e487b7160e01b88526021600452602488fd5b847f7d51d5b4c48b85336ef9e8cfdbc361b60c1967cf5dc110cbbfe8f32c197da6f760408051428152866020820152a261033c565b90505f610336565b60405162461bcd60e51b815260206004820152603160248201527f496e73756666696369656e74206174746573746174696f6e7320616e642074696044820152701b595bdd5d081b9bdd081c995858da1959607a1b6064820152608490fd5b508161032b565b634e487b7160e01b88526011600452602488fd5b634e487b7160e01b86526011600452602486fd5b606460405162461bcd60e51b815260206004820152602060248201527f4661696c656420746f20676574206174746573746174696f6e20636f756e74736044820152fd5b60405162461bcd60e51b815260206004820152602f60248201527f436f6e73656e73757320616c72656164792070726f63657373656420666f722060448201526e3a3434b99039bab136b4b9b9b4b7b760891b6064820152608490fd5b50346101955760203660031901126101955760406020916004358152600583522054604051908152f35b50346101955780600319360112610195576080600854600954600a54600b5491604051938452602084015260408301526060820152f35b50346101955780600319360112610195576020600854604051908152f35b50346101955760203660031901126101955760209060ff906040906001600160a01b036108f0611344565b168152600384522054166040519015158152f35b50346101955760403660031901126101955760043561092161135a565b90338352600360205260ff60408420541615610a8a5761094281151561143d565b80835260056020526040832054610a3a578083526005602052426040842055828060018060a01b036001541660405182602082019163b33d729f60e01b835286602482015260248152610996604482611370565b51925af16109a26115c4565b50156109e3576040514281526001600160a01b03909216917fc10b74b5bbdcd965d00c97e5367aea987af938c5f4e12c6837dcef486472876b90602090a380f35b60405162461bcd60e51b815260206004820152602960248201527f4661696c656420746f206f70656e207375626d697373696f6e20666f722061746044820152683a32b9ba30ba34b7b760b91b6064820152608490fd5b60405162461bcd60e51b815260206004820152602260248201527f5375626d697373696f6e20616c7265616479206265696e672070726f63657373604482015261195960f21b6064820152608490fd5b60405162461bcd60e51b815260206004820152602560248201527f4f6e6c7920726567697374657265642073747564696f732063616e2063616c6c604482015264207468697360d81b6064820152608490fd5b503461019557604036600319011261019557610af7611344565b610aff61135a565b90610b1560018060a01b036002541633146114bd565b6001600160a01b0316908115610bab576001600160a01b0316908115610b66576bffffffffffffffffffffffff60a01b8354161782556bffffffffffffffffffffffff60a01b600154161760015580f35b60405162461bcd60e51b815260206004820152601b60248201527f496e76616c6964206174746573746174696f6e206164647265737300000000006044820152606490fd5b60405162461bcd60e51b815260206004820152601860248201527f496e76616c6964207265676973747279206164647265737300000000000000006044820152606490fd5b5034610195578060031936011261019557602060405160428152f35b503461019557602036600319011261019557610c26611344565b610c3b60018060a01b036002541633146114bd565b6001600160a01b03168082526003602052604082205460ff1615610d7d57808252600360205260408220805460ff19169055815b60045480821015610d765782610c8483611411565b905460039190911b1c6001600160a01b031614610ca45750600101610c6f565b5f198101908111610d625790610cd7610cbf610cfb93611411565b905460039190911b1c6001600160a01b031691611411565b81546001600160a01b0393841660039290921b91821b9390911b1916919091179055565b6004548015610d4e575f1901610d1081611411565b81549060018060a01b039060031b1b191690556004555b7f1c89d7149be041fe1ae844246a50fe7a4245c6e3206d34417587f714f1a65b248280a280f35b634e487b7160e01b83526031600452602483fd5b634e487b7160e01b84526011600452602484fd5b5050610d27565b60405162461bcd60e51b815260206004820152601560248201527414dd1d591a5bc81b9bdd081c9959da5cdd195c9959605a1b6044820152606490fd5b5034610195578060031936011261019557606090604051905060038152604260208201526102586040820152f35b50346101955760203660031901126101955760ff6040602092600435610e0f81151561143d565b8152600684522054166040519015158152f35b50346101955780600319360112610195576002546040516001600160a01b039091168152602090f35b50346101955780600319360112610195576020600954604051908152f35b50346101955760203660031901126101955760ff60406020926004358152600684522054166040519015158152f35b50346101955780600319360112610195576001546040516001600160a01b039091168152602090f35b5034610f8e576040366003190112610f8e57600435610ede61135a565b610ef360018060a01b036002541633146114bd565b610efe82151561143d565b815f526005602052610f1560405f2054151561157f565b815f52600560205260405f20546104b08101809111610fd0574210610f9257303b15610f8e5760405163ed454caf60e01b815260048101929092526001600160a01b031660248201525f8160448183305af18015610f8357610f75575080f35b610f8191505f90611370565b005b6040513d5f823e3d90fd5b5f80fd5b60405162461bcd60e51b8152602060048201526016602482015275139bdd08195b9bdd59da081d1a5b59481c185cdcd95960521b6044820152606490fd5b634e487b7160e01b5f52601160045260245ffd5b34610f8e575f366003190112610f8e5760405180602060045491828152019060045f527f8a35acfbc15ff81a39ae7d344fd709f28e8600b4aa8c65c6b64bfe7fe36bd19b905f5b81811061105a576110568561104281870382611370565b6040519182916020835260208301906113d5565b0390f35b82546001600160a01b031684526020909301926001928301920161102b565b34610f8e575f366003190112610f8e5760206040516102588152f35b34610f8e576020366003190112610f8e576110566110bf6004356110ba81151561143d565b611558565b604051918291826113ae565b34610f8e576020366003190112610f8e576004355f52600760205261105660ff60405f205416604051918291826113ae565b34610f8e576040366003190112610f8e57611116611344565b60243567ffffffffffffffff8111610f8e5736602382011215610f8e5780600401359061114282611392565b916111506040519384611370565b80835260208301913660248383010111610f8e57815f9260246020930185378401015261118860018060a01b036002541633146114bd565b6001600160a01b0383169261119e841515611513565b835f52600360205260ff60405f20541661125557835f52600360205260405f20600160ff19825416179055600454926801000000000000000084101561124157611215604092610cd78660017f7998741730b0cd8c51dcbcd6e909ca26a6788e466bc5408f3ed67558b0915d769801600455611411565b8151928391602083525180918160208501528484015e5f828201840152601f01601f19168101030190a2005b634e487b7160e01b5f52604160045260245ffd5b60405162461bcd60e51b815260206004820152601960248201527f53747564696f20616c72656164792072656769737465726564000000000000006044820152606490fd5b34610f8e575f366003190112610f8e575f546040516001600160a01b039091168152602090f35b34610f8e575f366003190112610f8e57602060405160038152f35b34610f8e576020366003190112610f8e57602061130560043561130081151561143d565b61147a565b604051908152f35b34610f8e575f366003190112610f8e576020600a54604051908152f35b34610f8e575f366003190112610f8e57602090600b548152f35b600435906001600160a01b0382168203610f8e57565b602435906001600160a01b0382168203610f8e57565b90601f8019910116810190811067ffffffffffffffff82111761124157604052565b67ffffffffffffffff811161124157601f01601f191660200190565b9190602083019260048210156113c15752565b634e487b7160e01b5f52602160045260245ffd5b90602080835192838152019201905f5b8181106113f25750505090565b82516001600160a01b03168452602093840193909201916001016113e5565b6004548110156114295760045f5260205f2001905f90565b634e487b7160e01b5f52603260045260245ffd5b1561144457565b60405162461bcd60e51b815260206004820152600e60248201526d125b9d985b1a5908141bd048125160921b6044820152606490fd5b5f52600560205260405f205480156114b857610258810190818111610fd057814210156114b25742900361025801908111610fd05790565b50505f90565b505f90565b156114c457565b60405162461bcd60e51b815260206004820152602160248201527f4f6e6c79206f776e65722063616e2063616c6c20746869732066756e6374696f6044820152603760f91b6064820152608490fd5b1561151a57565b60405162461bcd60e51b8152602060048201526016602482015275496e76616c69642073747564696f206164647265737360501b6044820152606490fd5b805f52600660205260ff60405f205416156114b8575f52600760205260ff60405f20541690565b1561158657565b60405162461bcd60e51b815260206004820152601660248201527514dd589b5a5cdcda5bdb881b9bdd081cdd185c9d195960521b6044820152606490fd5b3d156115ee573d906115d582611392565b916115e36040519384611370565b82523d5f602084013e565b606090565b5f198114610fd05760010190565b811561160b570490565b634e487b7160e01b5f52601260045260245ffd5b919091811561168257606481029080820460641490151715610fd0578161164591611601565b91606481029080820460641490151715610fd05760429161166591611601565b91106116715750600190565b60421161167d57600290565b600390565b50505060039056fea264697066735822122016913cf6eafcbb1853c11fa604def10a50bf264d31f50c0d7fb6edc60bd537ca64736f6c634300081c0033","linkReferences":{}},"methodIdentifiers":{"ATTESTATION_TIMEOUT()":"60f6e440","CONSENSUS_THRESHOLD_PERCENT()":"bc1373c5","MINIMUM_ATTESTATIONS()":"451a307f","consensusProcessed(bytes32)":"7dce96e1","deregisterStudio(address)":"b83bd308","dvnAttestationContract()":"7228353f","dvnRegistryContract()":"4e64ad60","emergencyProcessConsensus(bytes32,address)":"6ad595ad","finalStatuses(bytes32)":"577dcfe6","getConsensusRequirements()":"b48831f8","getConsensusStats()":"e39626e2","getPoAStatus(bytes32)":"5bcaa22c","getRegisteredStudios()":"660062b3","getTimeRemaining(bytes32)":"32be9ebc","isConsensusProcessed(bytes32)":"9e563ae0","owner()":"8da5cb5b","processConsensus(bytes32,address)":"ed454caf","registerStudio(address,string)":"5015e436","registeredStudios(address)":"c874605a","startSubmissionProcessing(bytes32,address)":"c64430b1","studioList(uint256)":"f665fc9e","submissionOpenTime(bytes32)":"e6fa0d53","totalDisputedSubmissions()":"28b630c0","totalProcessedSubmissions()":"d9c22190","totalRejectedSubmissions()":"327ef5a6","totalVerifiedSubmissions()":"856d320d","transferOwnership(address)":"f2fde38b","updateContractReferences(address,address)":"c39fca7d"},"id":1}