{"abi":[{"type":"function","name":"INITIAL_REPUTATION","inputs":[],"outputs":[{"name":"","type":"uint256","internalType":"uint256"}],"stateMutability":"view"},{"type":"function","name":"MAX_REPUTATION","inputs":[],"outputs":[{"name":"","type":"uint256","internalType":"uint256"}],"stateMutability":"view"},{"type":"function","name":"MINIMUM_STAKE","inputs":[],"outputs":[{"name":"","type":"uint256","internalType":"uint256"}],"stateMutability":"view"},{"type":"function","name":"agentIdToAddress","inputs":[{"name":"","type":"bytes32","internalType":"bytes32"}],"outputs":[{"name":"","type":"address","internalType":"address"}],"stateMutability":"view"},{"type":"function","name":"getAllVerifiers","inputs":[],"outputs":[{"name":"","type":"address[]","internalType":"address[]"}],"stateMutability":"view"},{"type":"function","name":"getAllWorkers","inputs":[],"outputs":[{"name":"","type":"address[]","internalType":"address[]"}],"stateMutability":"view"},{"type":"function","name":"getStakedVerifiers","inputs":[],"outputs":[{"name":"","type":"address[]","internalType":"address[]"}],"stateMutability":"view"},{"type":"function","name":"getVerifierAgent","inputs":[{"name":"va","type":"address","internalType":"address"}],"outputs":[{"name":"","type":"tuple","internalType":"struct DVNRegistryPOC.VerifierAgentInfo","components":[{"name":"agentId","type":"bytes32","internalType":"bytes32"},{"name":"agentAddress","type":"address","internalType":"address"},{"name":"stakedAmount","type":"uint256","internalType":"uint256"},{"name":"reputation","type":"uint256","internalType":"uint256"},{"name":"isActive","type":"bool","internalType":"bool"},{"name":"registrationTime","type":"uint256","internalType":"uint256"},{"name":"endpoint","type":"string","internalType":"string"}]}],"stateMutability":"view"},{"type":"function","name":"getVerifierWeight","inputs":[{"name":"va","type":"address","internalType":"address"}],"outputs":[{"name":"weight","type":"uint256","internalType":"uint256"}],"stateMutability":"view"},{"type":"function","name":"getWorkerAgent","inputs":[{"name":"wa","type":"address","internalType":"address"}],"outputs":[{"name":"","type":"tuple","internalType":"struct DVNRegistryPOC.WorkerAgentInfo","components":[{"name":"agentId","type":"bytes32","internalType":"bytes32"},{"name":"agentAddress","type":"address","internalType":"address"},{"name":"isActive","type":"bool","internalType":"bool"},{"name":"registrationTime","type":"uint256","internalType":"uint256"},{"name":"submissionCount","type":"uint256","internalType":"uint256"}]}],"stateMutability":"view"},{"type":"function","name":"incrementSubmissionCount","inputs":[{"name":"wa","type":"address","internalType":"address"}],"outputs":[],"stateMutability":"nonpayable"},{"type":"function","name":"isRegisteredAgent","inputs":[{"name":"agent","type":"address","internalType":"address"}],"outputs":[{"name":"","type":"bool","internalType":"bool"}],"stateMutability":"view"},{"type":"function","name":"isRegisteredVerifier","inputs":[{"name":"agent","type":"address","internalType":"address"}],"outputs":[{"name":"","type":"bool","internalType":"bool"}],"stateMutability":"view"},{"type":"function","name":"isRegisteredWorker","inputs":[{"name":"agent","type":"address","internalType":"address"}],"outputs":[{"name":"","type":"bool","internalType":"bool"}],"stateMutability":"view"},{"type":"function","name":"mockStake","inputs":[],"outputs":[],"stateMutability":"payable"},{"type":"function","name":"registerAgent","inputs":[{"name":"agentId","type":"bytes32","internalType":"bytes32"},{"name":"agentType","type":"uint8","internalType":"enum DVNRegistryPOC.AgentType"},{"name":"endpoint","type":"string","internalType":"string"}],"outputs":[],"stateMutability":"nonpayable"},{"type":"function","name":"registeredVerifiers","inputs":[{"name":"","type":"uint256","internalType":"uint256"}],"outputs":[{"name":"","type":"address","internalType":"address"}],"stateMutability":"view"},{"type":"function","name":"registeredWorkers","inputs":[{"name":"","type":"uint256","internalType":"uint256"}],"outputs":[{"name":"","type":"address","internalType":"address"}],"stateMutability":"view"},{"type":"function","name":"slashStake","inputs":[{"name":"va","type":"address","internalType":"address"},{"name":"amount","type":"uint256","internalType":"uint256"}],"outputs":[],"stateMutability":"nonpayable"},{"type":"function","name":"totalRegisteredVAs","inputs":[],"outputs":[{"name":"","type":"uint256","internalType":"uint256"}],"stateMutability":"view"},{"type":"function","name":"totalRegisteredWAs","inputs":[],"outputs":[{"name":"","type":"uint256","internalType":"uint256"}],"stateMutability":"view"},{"type":"function","name":"totalStakedAmount","inputs":[],"outputs":[{"name":"","type":"uint256","internalType":"uint256"}],"stateMutability":"view"},{"type":"function","name":"unstake","inputs":[{"name":"amount","type":"uint256","internalType":"uint256"}],"outputs":[],"stateMutability":"nonpayable"},{"type":"function","name":"updateReputation","inputs":[{"name":"va","type":"address","internalType":"address"},{"name":"reputationDelta","type":"int256","internalType":"int256"}],"outputs":[],"stateMutability":"nonpayable"},{"type":"function","name":"verifierAgents","inputs":[{"name":"","type":"address","internalType":"address"}],"outputs":[{"name":"agentId","type":"bytes32","internalType":"bytes32"},{"name":"agentAddress","type":"address","internalType":"address"},{"name":"stakedAmount","type":"uint256","internalType":"uint256"},{"name":"reputation","type":"uint256","internalType":"uint256"},{"name":"isActive","type":"bool","internalType":"bool"},{"name":"registrationTime","type":"uint256","internalType":"uint256"},{"name":"endpoint","type":"string","internalType":"string"}],"stateMutability":"view"},{"type":"function","name":"workerAgents","inputs":[{"name":"","type":"address","internalType":"address"}],"outputs":[{"name":"agentId","type":"bytes32","internalType":"bytes32"},{"name":"agentAddress","type":"address","internalType":"address"},{"name":"isActive","type":"bool","internalType":"bool"},{"name":"registrationTime","type":"uint256","internalType":"uint256"},{"name":"submissionCount","type":"uint256","internalType":"uint256"}],"stateMutability":"view"},{"type":"event","name":"AgentDeactivated","inputs":[{"name":"agentAddress","type":"address","indexed":true,"internalType":"address"},{"name":"agentId","type":"bytes32","indexed":true,"internalType":"bytes32"},{"name":"agentType","type":"uint8","indexed":true,"internalType":"enum DVNRegistryPOC.AgentType"}],"anonymous":false},{"type":"event","name":"AgentRegistered","inputs":[{"name":"agentAddress","type":"address","indexed":true,"internalType":"address"},{"name":"agentId","type":"bytes32","indexed":true,"internalType":"bytes32"},{"name":"agentType","type":"uint8","indexed":true,"internalType":"enum DVNRegistryPOC.AgentType"}],"anonymous":false},{"type":"event","name":"ReputationUpdated","inputs":[{"name":"verifierAddress","type":"address","indexed":true,"internalType":"address"},{"name":"oldReputation","type":"uint256","indexed":false,"internalType":"uint256"},{"name":"newReputation","type":"uint256","indexed":false,"internalType":"uint256"}],"anonymous":false},{"type":"event","name":"VAStaked","inputs":[{"name":"verifierAddress","type":"address","indexed":true,"internalType":"address"},{"name":"amount","type":"uint256","indexed":false,"internalType":"uint256"},{"name":"totalStake","type":"uint256","indexed":false,"internalType":"uint256"}],"anonymous":false},{"type":"event","name":"VAUnstaked","inputs":[{"name":"verifierAddress","type":"address","indexed":true,"internalType":"address"},{"name":"amount","type":"uint256","indexed":false,"internalType":"uint256"},{"name":"remainingStake","type":"uint256","indexed":false,"internalType":"uint256"}],"anonymous":false}],"bytecode":{"object":"0x6080806040523460155761167e908161001a8239f35b5f80fdfe6080806040526004361015610012575f80fd5b5f3560e01c90816308dbbb03146112725750806310233784146111545780631e0c499c1461108b578063290472a11461106e5780632d1ccbba146110435780632e17de7814610e9d57806334e8f54314610e6b5780634b3dd2f514610ddd578063567e98f914610dc057806358f4aca814610d5c5780636a08b51114610c22578063716b84e114610bdf57806374521d7b146107485780637b0572581461072d5780637b2fded81461064857806384410771146105da57806393e147071461049057806398d1c5a8146103c8578063a00e450d1461032f578063af8d1555146102b2578063c9c0f25e14610225578063d213c0f214610209578063e21b38d2146101dc578063f2501e461461019d578063f34991e31461015b5763fdb8c97a1461013a575f80fd5b34610157575f366003190112610157576020600654604051908152f35b5f80fd5b3461015757602036600319011261015757600435600354811015610157576101846020916112cb565b905460405160039290921b1c6001600160a01b03168152f35b34610157576020366003190112610157576001600160a01b036101be611291565b165f525f602052602060ff600460405f200154166040519015158152f35b346101575760203660031901126101575760206101ff6101fa611291565b611606565b6040519015158152f35b34610157575f3660031901126101575760206040516103e88152f35b34610157575f3660031901126101575760405180602060045491828152019060045f527f8a35acfbc15ff81a39ae7d344fd709f28e8600b4aa8c65c6b64bfe7fe36bd19b905f5b8181106102935761028f8561028381870382611330565b6040519182918261136e565b0390f35b82546001600160a01b031684526020909301926001928301920161026c565b34610157575f3660031901126101575760405180602060035491828152019060035f527fc2575a0e9e593c00f959f8c92f12db2869c3395a3b0502d05e2516446f71f85b905f5b8181106103105761028f8561028381870382611330565b82546001600160a01b03168452602090930192600192830192016102f9565b34610157576020366003190112610157576001600160a01b03610350611291565b165f525f60205260405f20805461028f60018060a01b0360018401541692600281015490600381015460ff600483015416906103936006600585015494016113e8565b9360405197889788526020880152604087015260608601521515608085015260a084015260e060c084015260e08301906112a7565b34610157576040366003190112610157576103e1611291565b6001600160a01b03165f818152602081905260409020600401546024359061040b9060ff166115a5565b815f525f60205280600260405f2001541061044b57610446915f525f602052600260405f200161043c82825461158a565b905560075461158a565b600755005b60405162461bcd60e51b815260206004820152601b60248201527f496e73756666696369656e74207374616b6520746f20736c61736800000000006044820152606490fd5b34610157575f366003190112610157576003545f805b82811061058957506104b7816115ee565b906104c56040519283611330565b8082526104d4601f19916115ee565b013660208301375f915f5b8181106104f4576040518061028f858261136e565b6104fd816112cb565b60018060a01b0391549060031b1c165f525f60205266038d7ea4c68000600260405f2001541015610531575b6001016104df565b9261053b846112cb565b9054845160039290921b1c6001600160a01b031690821015610575578161056d91602060019460051b87010152611597565b939050610529565b634e487b7160e01b5f52603260045260245ffd5b610592816112cb565b60018060a01b0391549060031b1c165f525f60205266038d7ea4c68000600260405f20015410156105c6575b6001016104a6565b906105d2600191611597565b9190506105be565b34610157576020366003190112610157576001600160a01b036105fb611291565b165f52600160205260a060405f2080549060018101549060ff6003600283015492015492604051948552600180871b0381166020860152851c161515604084015260608301526080820152f35b5f36600319011261015757335f525f60205261066d60ff600460405f2001541661153e565b66038d7ea4c6800034106106e857335f525f602052600260405f20016106943482546115e1565b90556106a2346007546115e1565b600755335f525f602052600260405f2001546040519034825260208201527f4488cbc97d94f2011fa947e2256c84cf17d8bce205bc803e532e7849aa865c3360403392a2005b60405162461bcd60e51b815260206004820152601960248201527f496e73756666696369656e74207374616b6520616d6f756e74000000000000006044820152606490fd5b34610157575f36600319011261015757602060405160648152f35b34610157576060366003190112610157576004356024356002811015610157576044359167ffffffffffffffff8311610157573660238401121561015757826004013561079481611352565b936107a26040519586611330565b818552366024838301011161015757815f9260246020930183880137850101528015610ba7575f818152600260205260409020546001600160a01b0316610b62576107ec33611606565b610b1d575f81815260026020526040902080546001600160a01b0319163317905560018203610a47576006604051610823816112f8565b82815260208101338152604082015f8152606083016064815260808401916001835260a085019342855260c08601998a52335f525f60205260405f209551865560018060a01b03905116600186019060018060a01b03166bffffffffffffffffffffffff60a01b825416179055516002850155516003840155600483019051151560ff8019835416911617905551600582015501925192835167ffffffffffffffff8111610982576108d582546113b0565b601f8111610a02575b50602094601f82116001146109a1579481929394955f92610996575b50508160011b915f199060031b1c19161790555b600354600160401b8110156109825780600161092f920160035560036112e3565b81546001600160a01b0360039290921b91821b19163390911b17905560055461095790611597565b6005555b337f0c034e67a7f572b8351d1edad9e6e433ca7e250885471af67aa89c49863910795f80a4005b634e487b7160e01b5f52604160045260245ffd5b0151905085806108fa565b601f19821695835f52805f20915f5b8881106109ea575083600195969798106109d2575b505050811b01905561090e565b01515f1960f88460031b161c191690558580806109c5565b919260206001819286850151815501940192016109b0565b825f5260205f20601f830160051c81019160208410610a3d575b601f0160051c01905b818110610a3257506108de565b5f8155600101610a25565b9091508190610a1c565b909150604051610a5681611314565b8181523360208083018281526001604080860182815242606088019081525f6080890181815297815295849052919094209551865591519085018054935160ff60a01b90151560a01b166001600160a01b039092166001600160a81b0319909416939093171790915551600283015551600390910155600454600160401b81101561098257806001610aed920160045560046112e3565b81546001600160a01b0360039290921b91821b19163390911b179055600654610b1590611597565b60065561095b565b60405162461bcd60e51b815260206004820152601a60248201527f4164647265737320616c726561647920726567697374657265640000000000006044820152606490fd5b60405162461bcd60e51b815260206004820152601760248201527f4167656e7420494420616c7265616479206578697374730000000000000000006044820152606490fd5b60405162461bcd60e51b815260206004820152601060248201526f125b9d985b1a59081859d95b9d08125160821b6044820152606490fd5b34610157576020366003190112610157576001600160a01b03610c00611291565b165f526001602052602060ff600160405f20015460a01c166040519015158152f35b3461015757604036600319011261015757610c3b611291565b6001600160a01b03165f8181526020819052604090206004015460243590610c659060ff166115a5565b5f8281526020819052604081206003015491908112610cea5781610cac6040927f5b88a2e3fc1a53234357ab78c104df11c33ccfa79886793654565ad70b8afb6e946115e1565b6103e8811115610ce557506103e85b845f525f6020526003835f2001555b835f525f6020526003825f20015482519182526020820152a2005b610cbb565b600160ff1b8114610d48577f5b88a2e3fc1a53234357ab78c104df11c33ccfa79886793654565ad70b8afb6e916040915f0380821115610d4157610d2e908261158a565b845f525f6020526003835f200155610cca565b505f610d2e565b634e487b7160e01b5f52601160045260245ffd5b3461015757602036600319011261015757600435600454811015610157576004548110156105755760045f527f8a35acfbc15ff81a39ae7d344fd709f28e8600b4aa8c65c6b64bfe7fe36bd19b01546040516001600160a01b039091168152602090f35b34610157575f366003190112610157576020600754604051908152f35b34610157576020366003190112610157576001600160a01b03610dfe611291565b16805f52600160205260ff600160405f20015460a01c1615610e36575f526001602052600360405f2001610e328154611597565b9055005b60405162461bcd60e51b815260206004820152600d60248201526c5741206e6f742061637469766560981b6044820152606490fd5b34610157576020366003190112610157576004355f526002602052602060018060a01b0360405f205416604051908152f35b3461015757602036600319011261015757600435335f525f602052610ecb60ff600460405f2001541661153e565b335f525f602052600260405f20018054828110610ffe5766038d7ea4c68000610ef4848361158a565b10610fb95782610f039161158a565b8155610f118260075461158a565b6007555f80808085335af13d15610fb4573d610f2c81611352565b90610f3a6040519283611330565b81525f60203d92013e5b15610f7d575460405191825260208201527fcd2cc3a102c9f5d99b1a6da1479cbdf83dd5036c09452a374ebea3c39eecbc5260403392a2005b60405162461bcd60e51b815260206004820152600f60248201526e151c985b9cd9995c8819985a5b1959608a1b6044820152606490fd5b610f44565b60405162461bcd60e51b815260206004820152601d60248201527f43616e6e6f7420676f2062656c6f77206d696e696d756d207374616b650000006044820152606490fd5b60405162461bcd60e51b815260206004820152601a60248201527f496e73756666696369656e74207374616b656420616d6f756e740000000000006044820152606490fd5b34610157576020366003190112610157576020611066611061611291565b611488565b604051908152f35b34610157575f366003190112610157576020600554604051908152f35b34610157576020366003190112610157576110a4611291565b5f60806040516110b381611314565b828152826020820152826040820152826060820152015260018060a01b03165f52600160205260a060405f206040516110eb81611314565b815491828252600181015460208301600180871b038216815260ff6040850192871c1615158252608060036002850154946060870195865201549401938452604051948552600180871b0390511660208501525115156040840152516060830152516080820152f35b346101575760203660031901126101575761116d611291565b606060c060405161117d816112f8565b5f81525f60208201525f60408201525f838201525f60808201525f60a0820152015260018060a01b03165f525f60205260405f206040516111bd816112f8565b8154815260018201546001600160a01b031660208201908152600283015460408301908152600384015460608401908152600485015460ff16151560808501908152600586015460a08601908152939561028f94929061121f906006016113e8565b9360c087019485526040519788976020895251602089015260018060a01b03905116604088015251606087015251608086015251151560a08501525160c08401525160e0808401526101008301906112a7565b34610157575f366003190112610157578066038d7ea4c6800060209252f35b600435906001600160a01b038216820361015757565b805180835260209291819084018484015e5f828201840152601f01601f1916010190565b6003548110156105755760035f5260205f2001905f90565b8054821015610575575f5260205f2001905f90565b60e0810190811067ffffffffffffffff82111761098257604052565b60a0810190811067ffffffffffffffff82111761098257604052565b90601f8019910116810190811067ffffffffffffffff82111761098257604052565b67ffffffffffffffff811161098257601f01601f191660200190565b60206040818301928281528451809452019201905f5b8181106113915750505090565b82516001600160a01b0316845260209384019390920191600101611384565b90600182811c921680156113de575b60208310146113ca57565b634e487b7160e01b5f52602260045260245ffd5b91607f16916113bf565b9060405191825f8254926113fb846113b0565b80845293600181169081156114665750600114611422575b5061142092500383611330565b565b90505f9291925260205f20905f915b81831061144a575050906020611420928201015f611413565b6020919350806001915483858901015201910190918492611431565b90506020925061142094915060ff191682840152151560051b8201015f611413565b60018060a01b03165f525f60205260405f20604051906114a7826112f8565b8054825260018060a01b036001820154166020830152600281015490604083019182526003810154926060810193845260c0611500600660ff60048601541694608085019515158652600581015460a0860152016113e8565b9101525115801561152d575b6115275751905190818102918183041490151715610d485790565b50505f90565b5066038d7ea4c6800081511061150c565b1561154557565b60405162461bcd60e51b815260206004820152601960248201527f4e6f7420612072656769737465726564207665726966696572000000000000006044820152606490fd5b91908203918211610d4857565b5f198114610d485760010190565b156115ac57565b60405162461bcd60e51b815260206004820152600d60248201526c5641206e6f742061637469766560981b6044820152606490fd5b91908201809211610d4857565b67ffffffffffffffff81116109825760051b60200190565b6001600160a01b03165f8181526020819052604090206004015460ff1690811561162e575090565b90505f52600160205260ff600160405f20015460a01c169056fea2646970667358221220dd37c565d9f0dc24143f2d75287004d23a57cc5fe10671d8f12861f8fb11bcd264736f6c634300081c0033","linkReferences":{}},"methodIdentifiers":{"INITIAL_REPUTATION()":"7b057258","MAX_REPUTATION()":"d213c0f2","MINIMUM_STAKE()":"08dbbb03","agentIdToAddress(bytes32)":"34e8f543","getAllVerifiers()":"af8d1555","getAllWorkers()":"c9c0f25e","getStakedVerifiers()":"93e14707","getVerifierAgent(address)":"10233784","getVerifierWeight(address)":"2d1ccbba","getWorkerAgent(address)":"1e0c499c","incrementSubmissionCount(address)":"4b3dd2f5","isRegisteredAgent(address)":"e21b38d2","isRegisteredVerifier(address)":"f2501e46","isRegisteredWorker(address)":"716b84e1","mockStake()":"7b2fded8","registerAgent(bytes32,uint8,string)":"74521d7b","registeredVerifiers(uint256)":"f34991e3","registeredWorkers(uint256)":"58f4aca8","slashStake(address,uint256)":"98d1c5a8","totalRegisteredVAs()":"290472a1","totalRegisteredWAs()":"fdb8c97a","totalStakedAmount()":"567e98f9","unstake(uint256)":"2e17de78","updateReputation(address,int256)":"6a08b511","verifierAgents(address)":"a00e450d","workerAgents(address)":"84410771"},"id":2}