{"abi":[{"type":"constructor","inputs":[{"name":"_dvnRegistryContract","type":"address","internalType":"address"}],"stateMutability":"nonpayable"},{"type":"function","name":"STUDIO_NAME","inputs":[],"outputs":[{"name":"","type":"string","internalType":"string"}],"stateMutability":"view"},{"type":"function","name":"STUDIO_VERSION","inputs":[],"outputs":[{"name":"","type":"string","internalType":"string"}],"stateMutability":"view"},{"type":"function","name":"VERIFICATION_FEE","inputs":[],"outputs":[{"name":"","type":"uint256","internalType":"uint256"}],"stateMutability":"view"},{"type":"function","name":"allSubmissions","inputs":[{"name":"","type":"uint256","internalType":"uint256"}],"outputs":[{"name":"","type":"bytes32","internalType":"bytes32"}],"stateMutability":"view"},{"type":"function","name":"dvnConsensusContract","inputs":[],"outputs":[{"name":"","type":"address","internalType":"address"}],"stateMutability":"view"},{"type":"function","name":"dvnRegistryContract","inputs":[],"outputs":[{"name":"","type":"address","internalType":"address"}],"stateMutability":"view"},{"type":"function","name":"getAllSubmissions","inputs":[],"outputs":[{"name":"submissionIds","type":"bytes32[]","internalType":"bytes32[]"}],"stateMutability":"view"},{"type":"function","name":"getBalance","inputs":[],"outputs":[{"name":"balance","type":"uint256","internalType":"uint256"}],"stateMutability":"view"},{"type":"function","name":"getPoASubmission","inputs":[{"name":"poaId","type":"bytes32","internalType":"bytes32"}],"outputs":[{"name":"submission","type":"tuple","internalType":"struct IStudioPolicy.PoASubmission","components":[{"name":"agentId","type":"bytes32","internalType":"bytes32"},{"name":"actionType","type":"string","internalType":"string"},{"name":"metadataURI","type":"string","internalType":"string"},{"name":"status","type":"uint8","internalType":"enum IStudioPolicy.PoAStatus"},{"name":"submitter","type":"address","internalType":"address"},{"name":"timestamp","type":"uint256","internalType":"uint256"}]}],"stateMutability":"view"},{"type":"function","name":"getStudioStats","inputs":[],"outputs":[{"name":"total","type":"uint256","internalType":"uint256"},{"name":"verified","type":"uint256","internalType":"uint256"},{"name":"rejected","type":"uint256","internalType":"uint256"},{"name":"pending","type":"uint256","internalType":"uint256"}],"stateMutability":"view"},{"type":"function","name":"getSubmissionsByAgent","inputs":[{"name":"agentId","type":"bytes32","internalType":"bytes32"}],"outputs":[{"name":"agentSubmissions","type":"bytes32[]","internalType":"bytes32[]"}],"stateMutability":"view"},{"type":"function","name":"getSubmissionsByStatus","inputs":[{"name":"status","type":"uint8","internalType":"enum IStudioPolicy.PoAStatus"}],"outputs":[{"name":"filteredSubmissions","type":"bytes32[]","internalType":"bytes32[]"}],"stateMutability":"view"},{"type":"function","name":"owner","inputs":[],"outputs":[{"name":"","type":"address","internalType":"address"}],"stateMutability":"view"},{"type":"function","name":"poaSubmissions","inputs":[{"name":"","type":"bytes32","internalType":"bytes32"}],"outputs":[{"name":"agentId","type":"bytes32","internalType":"bytes32"},{"name":"actionType","type":"string","internalType":"string"},{"name":"metadataURI","type":"string","internalType":"string"},{"name":"status","type":"uint8","internalType":"enum IStudioPolicy.PoAStatus"},{"name":"submitter","type":"address","internalType":"address"},{"name":"timestamp","type":"uint256","internalType":"uint256"}],"stateMutability":"view"},{"type":"function","name":"rejectedSubmissions","inputs":[],"outputs":[{"name":"","type":"uint256","internalType":"uint256"}],"stateMutability":"view"},{"type":"function","name":"setDVNConsensusContract","inputs":[{"name":"_dvnConsensusContract","type":"address","internalType":"address"}],"outputs":[],"stateMutability":"nonpayable"},{"type":"function","name":"submissionExists","inputs":[{"name":"poaId","type":"bytes32","internalType":"bytes32"}],"outputs":[{"name":"exists","type":"bool","internalType":"bool"}],"stateMutability":"view"},{"type":"function","name":"submitWork","inputs":[{"name":"agentId","type":"bytes32","internalType":"bytes32"},{"name":"actionType","type":"string","internalType":"string"},{"name":"metadataURI","type":"string","internalType":"string"}],"outputs":[{"name":"poaId","type":"bytes32","internalType":"bytes32"}],"stateMutability":"payable"},{"type":"function","name":"totalSubmissions","inputs":[],"outputs":[{"name":"","type":"uint256","internalType":"uint256"}],"stateMutability":"view"},{"type":"function","name":"transferOwnership","inputs":[{"name":"newOwner","type":"address","internalType":"address"}],"outputs":[],"stateMutability":"nonpayable"},{"type":"function","name":"updatePoAStatus","inputs":[{"name":"poaId","type":"bytes32","internalType":"bytes32"},{"name":"newStatus","type":"uint8","internalType":"enum IStudioPolicy.PoAStatus"}],"outputs":[],"stateMutability":"nonpayable"},{"type":"function","name":"verifiedSubmissions","inputs":[],"outputs":[{"name":"","type":"uint256","internalType":"uint256"}],"stateMutability":"view"},{"type":"function","name":"withdrawFees","inputs":[],"outputs":[],"stateMutability":"nonpayable"},{"type":"event","name":"PoAStatusUpdated","inputs":[{"name":"poaId","type":"bytes32","indexed":true,"internalType":"bytes32"},{"name":"oldStatus","type":"uint8","indexed":true,"internalType":"enum IStudioPolicy.PoAStatus"},{"name":"newStatus","type":"uint8","indexed":true,"internalType":"enum IStudioPolicy.PoAStatus"}],"anonymous":false},{"type":"event","name":"StudioConfigUpdated","inputs":[{"name":"dvnConsensusContract","type":"address","indexed":true,"internalType":"address"},{"name":"dvnRegistryContract","type":"address","indexed":true,"internalType":"address"}],"anonymous":false},{"type":"event","name":"WorkSubmitted","inputs":[{"name":"poaId","type":"bytes32","indexed":true,"internalType":"bytes32"},{"name":"agentId","type":"bytes32","indexed":true,"internalType":"bytes32"},{"name":"actionType","type":"string","indexed":false,"internalType":"string"},{"name":"metadataURI","type":"string","indexed":false,"internalType":"string"},{"name":"submitter","type":"address","indexed":true,"internalType":"address"}],"anonymous":false}],"bytecode":{"object":"0x608034607e57601f61166438819003918201601f19168301916001600160401b03831184841017608257808492602094604052833981010312607e57516001600160a01b03811690819003607e57600280546001600160a01b03199081163317909155600480549091169190911790556040516115cd90816100978239f35b5f80fd5b634e487b7160e01b5f52604160045260245ffdfe60806040526004361015610011575f80fd5b5f3560e01c80627e5c04146111a657806302a3dbe91461115157806312065fe014611136578063270c15c514610f745780633af306b11461089a578063435d6fab146107a0578063476343ee146106c3578063478d60da1461067c5780634e64ad60146106545780634fb90a64146105015780635c249464146104c957806362bd983a1461044957806377ef37221461042c57806378a1bffd1461040c5780637a708bd7146103c6578063898af840146103905780638da5cb5b14610368578063a39540161461034b578063a4904ca51461032e578063b121729f146102ae578063e16fd27a14610286578063eead2bad146101a55763f2fde38b14610115575f80fd5b346101a15760203660031901126101a1576004356001600160a01b038116908190036101a157600254610152336001600160a01b03831614611534565b8115610168576001600160a01b03191617600255005b60405162461bcd60e51b815260206004820152601160248201527024b73b30b634b2103732bb9037bbb732b960791b6044820152606490fd5b5f80fd5b346101a15760203660031901126101a157600154600435905f805b82811061024857506101d1906114ee565b915f905f5b8381106101ef57604051806101eb87826113eb565b0390f35b6101f881611424565b90549060031b1c5f525f6020528160405f205414610219575b6001016101d6565b9161024060019161022985611424565b90549060031b1c61023a8289611520565b526114b4565b929050610211565b61025181611424565b90549060031b1c5f525f6020528360405f205414610272575b6001016101c0565b9061027e6001916114b4565b91905061026a565b346101a1575f3660031901126101a1576003546040516001600160a01b039091168152602090f35b346101a15760203660031901126101a1576004356001600160a01b038116908190036101a1576102e960018060a01b03600254163314611534565b600380546001600160a01b031916821790556004546001600160a01b0316907f13163ce20ec814b5649b82479aa997ab0e4e9d35c2b85b514dab7d28c5179b0f5f80a3005b346101a1575f3660031901126101a1576020600654604051908152f35b346101a1575f3660031901126101a1576020600554604051908152f35b346101a1575f3660031901126101a1576002546040516001600160a01b039091168152602090f35b346101a15760203660031901126101a15760206103bc6004355f525f602052600460405f200154151590565b6040519015158152f35b346101a1575f3660031901126101a15760806005546006546007546103f4816103ef848661158a565b61158a565b91604051938452602084015260408301526060820152f35b346101a1575f3660031901126101a1576020604051655af3107a40008152f35b346101a1575f3660031901126101a1576020600754604051908152f35b346101a1575f3660031901126101a15760405180602060015491828152019060015f527fb10e2d527612073b26eecdfd717e6a320cf44b4afac2b0732d9fcbe2b7fa0cf6905f5b8181106104b3576101eb856104a781870382611296565b604051918291826113eb565b8254845260209093019260019283019201610490565b346101a15760203660031901126101a1576004356001548110156101a1576104f2602091611424565b90549060031b1c604051908152f35b346101a15760203660031901126101a1576004355f60a06040516105248161127a565b8281526060602082015260606040820152826060820152826080820152015261056261055d825f525f602052600460405f200154151590565b611450565b5f525f60205260405f206040516105788161127a565b81548152610588600183016112b8565b916020820192835261059c600282016112b8565b60408301908152600382015460ff81166060850193600482101561064057600461061b91610627938752608088019460018060a01b039060081c16855201549360a0870194855261060860405198899860208a525160208a01525160c060408a015260e0890190611358565b9051878203601f19016060890152611358565b9351608086019061137c565b516001600160a01b031660a08401525160c08301520390f35b634e487b7160e01b5f52602160045260245ffd5b346101a1575f3660031901126101a1576004546040516001600160a01b039091168152602090f35b346101a1575f3660031901126101a1576101eb60405161069d604082611296565b60058152640312e302e360dc1b6020820152604051918291602083526020830190611358565b346101a1575f3660031901126101a1576002546001600160a01b03166106ea338214611534565b47908115610765575f80809381935af13d15610760573d61070a81611389565b906107186040519283611296565b81525f60203d92013e5b1561072957005b60405162461bcd60e51b815260206004820152600f60248201526e151c985b9cd9995c8819985a5b1959608a1b6044820152606490fd5b610722565b60405162461bcd60e51b81526020600482015260136024820152724e6f206665657320746f20776974686472617760681b6044820152606490fd5b346101a15760203660031901126101a157600435600481101590816101a1576001545f805b82811061084757506107d6906114ee565b915f905f5b8381106107f057604051806101eb87826113eb565b6107f981611424565b90549060031b1c5f525f6020528560ff600360405f200154169061064057600481101561064057821461082f575b6001016107db565b9161083f60019161022985611424565b929050610827565b61085081611424565b90549060031b1c5f525f6020528460ff600360405f2001541690610640576004811015610640578414610886575b6001016107c5565b906108926001916114b4565b91905061087e565b60603660031901126101a15760043560243567ffffffffffffffff81116101a1576108c99036906004016113a5565b9060443567ffffffffffffffff81116101a1576108ea9036906004016113a5565b3315610f36576040516020810184519161091e602082818901958087875e81015f838201520301601f198101835282611296565b51902060405160208101907312da5c985b98505257d4dd1bd8dad4995c1bdc9d60621b825260148152610952603482611296565b5190208114908115610eef575b8115610eb1575b5015610e6057655af3107a40003410610e1b578215610de357815115610d9e576005546109da60546040518093604060208301968988528a5180918386015e8301818101905f82528951809260208c01905e0101904282523360601b60208301526034820152036034810184520182611296565b519020916109f5835f525f602052600460405f200154151590565b610d5957604051610a058161127a565b818152602081018581526040820190848252606083015f8152608084019233845260a0850192428452885f525f60205260405f209551865560018601905180519067ffffffffffffffff8211610bc9578190610a618454611242565b601f8111610d09575b50602090601f8311600114610ca6575f92610c9b575b50508160011b915f199060031b1c19161790555b518051600286019167ffffffffffffffff8211610bc9578190610ab78454611242565b601f8111610c4b575b50602090601f8311600114610be8575f92610bdd575b50508160011b915f199060031b1c19161790555b60038401905192600484101561064057610b066004948361149c565b518154610100600160a81b03191660089190911b610100600160a81b03161790555191015560015468010000000000000000811015610bc9577f66d6e556ab8cc11626e3d00feaa47fac4be5ef7a05c5b1c5587f81e39627eef0610bb0602096610b77846001899601600155611424565b81549060031b9086821b915f19901b1916179055610b966005546114b4565b600555610bbe604051928392604084526040840190611358565b8281038a8401523397611358565b0390a4604051908152f35b634e487b7160e01b5f52604160045260245ffd5b015190508b80610ad6565b5f8581528281209350601f198516905b818110610c335750908460019594939210610c1b575b505050811b019055610aea565b01515f1960f88460031b161c191690558b8080610c0e565b92936020600181928786015181550195019301610bf8565b909150835f5260205f20601f840160051c81019160208510610c91575b90601f859493920160051c01905b818110610c835750610ac0565b5f8155849350600101610c76565b9091508190610c68565b015190508c80610a80565b5f8581528281209350601f198516905b818110610cf15750908460019594939210610cd9575b505050811b019055610a94565b01515f1960f88460031b161c191690558c8080610ccc565b92936020600181928786015181550195019301610cb6565b909150835f5260205f20601f840160051c81019160208510610d4f575b90601f859493920160051c01905b818110610d415750610a6a565b5f8155849350600101610d34565b9091508190610d26565b60405162461bcd60e51b815260206004820152601960248201527f5375626d697373696f6e20616c726561647920657869737473000000000000006044820152606490fd5b60405162461bcd60e51b815260206004820152601c60248201527f4d65746164617461205552492063616e6e6f7420626520656d707479000000006044820152606490fd5b60405162461bcd60e51b815260206004820152601060248201526f125b9d985b1a59081859d95b9d08125160821b6044820152606490fd5b60405162461bcd60e51b815260206004820152601d60248201527f496e73756666696369656e7420766572696669636174696f6e206665650000006044820152606490fd5b60405162461bcd60e51b815260206004820152602360248201527f496e76616c696420616374696f6e207479706520666f7220746869732073747560448201526264696f60e81b6064820152608490fd5b905060405160208101907412da5c985b98505257d4995bdc99195c905b195c9d605a1b825260158152610ee5603582611296565b5190201485610966565b905060405160208101907f4b6972616e6141495f496e76656e746f72794175646974000000000000000000825260178152610f2b603782611296565b51902081149061095f565b60405162461bcd60e51b8152602060048201526016602482015275496e76616c696420776f726b6572206164647265737360501b6044820152606490fd5b346101a15760403660031901126101a1576004356024359060048210156101a1576003546001600160a01b031633036110df57610fc161055d825f525f602052600460405f200154151590565b805f525f602052600360405f20019060ff825416916004831015610640578383146110a757826110545783610ff59161149c565b5f60018403611037576110096006546114b4565b6006555b610640577f7ba5ca52ed4feba2b3915ffa0c41c1061b80dad67bcda27233642165855eba6e5f80a4005b505f6002840361100d5761104c6007546114b4565b60075561100d565b60405162461bcd60e51b815260206004820152602560248201527f43616e206f6e6c7920757064617465207375626d6974746564207375626d697360448201526473696f6e7360d81b6064820152608490fd5b60405162461bcd60e51b815260206004820152601060248201526f14dd185d1d5cc81d5b98da185b99d95960821b6044820152606490fd5b60405162461bcd60e51b815260206004820152602960248201527f4f6e6c792044564e20636f6e73656e73757320636f6e74726163742063616e2060448201526863616c6c207468697360b81b6064820152608490fd5b346101a1575f3660031901126101a157602047604051908152f35b346101a1575f3660031901126101a1576101eb604051611172604082611296565b60138152724b6972616e6141492d504f432d53747564696f60681b6020820152604051918291602083526020830190611358565b346101a15760203660031901126101a1576004355f525f60205260405f2080546111d2600183016112b8565b916111df600282016112b8565b6112176004600384015493015491611209604051968796875260c0602088015260c0870190611358565b908582036040870152611358565b916112286060850160ff831661137c565b60081c6001600160a01b0316608084015260a08301520390f35b90600182811c92168015611270575b602083101461125c57565b634e487b7160e01b5f52602260045260245ffd5b91607f1691611251565b60c0810190811067ffffffffffffffff821117610bc957604052565b90601f8019910116810190811067ffffffffffffffff821117610bc957604052565b9060405191825f8254926112cb84611242565b808452936001811690811561133657506001146112f2575b506112f092500383611296565b565b90505f9291925260205f20905f915b81831061131a5750509060206112f0928201015f6112e3565b6020919350806001915483858901015201910190918492611301565b9050602092506112f094915060ff191682840152151560051b8201015f6112e3565b805180835260209291819084018484015e5f828201840152601f01601f1916010190565b9060048210156106405752565b67ffffffffffffffff8111610bc957601f01601f191660200190565b81601f820112156101a1578035906113bc82611389565b926113ca6040519485611296565b828452602083830101116101a157815f926020809301838601378301015290565b60206040818301928281528451809452019201905f5b81811061140e5750505090565b8251845260209384019390920191600101611401565b60015481101561143c5760015f5260205f2001905f90565b634e487b7160e01b5f52603260045260245ffd5b1561145757565b60405162461bcd60e51b815260206004820152601960248201527f5375626d697373696f6e20646f6573206e6f74206578697374000000000000006044820152606490fd5b9060048110156106405760ff80198354169116179055565b5f1981146114c25760010190565b634e487b7160e01b5f52601160045260245ffd5b67ffffffffffffffff8111610bc95760051b60200190565b906114f8826114d6565b6115056040519182611296565b8281528092611516601f19916114d6565b0190602036910137565b805182101561143c5760209160051b010190565b1561153b57565b60405162461bcd60e51b815260206004820152602160248201527f4f6e6c79206f776e65722063616e2063616c6c20746869732066756e6374696f6044820152603760f91b6064820152608490fd5b919082039182116114c25756fea264697066735822122088c1dcba9e43a22e540a2a021f104c60e38624dbedd8519b98da1db53c05c83b64736f6c634300081c0033","linkReferences":{}},"methodIdentifiers":{"STUDIO_NAME()":"02a3dbe9","STUDIO_VERSION()":"478d60da","VERIFICATION_FEE()":"78a1bffd","allSubmissions(uint256)":"5c249464","dvnConsensusContract()":"e16fd27a","dvnRegistryContract()":"4e64ad60","getAllSubmissions()":"62bd983a","getBalance()":"12065fe0","getPoASubmission(bytes32)":"4fb90a64","getStudioStats()":"7a708bd7","getSubmissionsByAgent(bytes32)":"eead2bad","getSubmissionsByStatus(uint8)":"435d6fab","owner()":"8da5cb5b","poaSubmissions(bytes32)":"007e5c04","rejectedSubmissions()":"77ef3722","setDVNConsensusContract(address)":"b121729f","submissionExists(bytes32)":"898af840","submitWork(bytes32,string,string)":"3af306b1","totalSubmissions()":"a3954016","transferOwnership(address)":"f2fde38b","updatePoAStatus(bytes32,uint8)":"270c15c5","verifiedSubmissions()":"a4904ca5","withdrawFees()":"476343ee"},"id":3}