{"abi":[{"type":"constructor","inputs":[{"name":"_dvnRegistryContract","type":"address","internalType":"address"}],"stateMutability":"nonpayable"},{"type":"function","name":"attestations","inputs":[{"name":"","type":"bytes32","internalType":"bytes32"},{"name":"","type":"address","internalType":"address"}],"outputs":[{"name":"verifier","type":"address","internalType":"address"},{"name":"isApproved","type":"bool","internalType":"bool"},{"name":"justificationURI","type":"string","internalType":"string"},{"name":"timestamp","type":"uint256","internalType":"uint256"},{"name":"signature","type":"bytes","internalType":"bytes"}],"stateMutability":"view"},{"type":"function","name":"attestorsByPoA","inputs":[{"name":"","type":"bytes32","internalType":"bytes32"},{"name":"","type":"uint256","internalType":"uint256"}],"outputs":[{"name":"","type":"address","internalType":"address"}],"stateMutability":"view"},{"type":"function","name":"closeSubmissionForAttestation","inputs":[{"name":"poaId","type":"bytes32","internalType":"bytes32"}],"outputs":[],"stateMutability":"nonpayable"},{"type":"function","name":"dvnConsensusContract","inputs":[],"outputs":[{"name":"","type":"address","internalType":"address"}],"stateMutability":"view"},{"type":"function","name":"dvnRegistryContract","inputs":[],"outputs":[{"name":"","type":"address","internalType":"address"}],"stateMutability":"view"},{"type":"function","name":"getApprovalCounts","inputs":[{"name":"poaId","type":"bytes32","internalType":"bytes32"}],"outputs":[{"name":"approvals","type":"uint256","internalType":"uint256"},{"name":"rejections","type":"uint256","internalType":"uint256"}],"stateMutability":"view"},{"type":"function","name":"getAttestationByVerifier","inputs":[{"name":"poaId","type":"bytes32","internalType":"bytes32"},{"name":"verifier","type":"address","internalType":"address"}],"outputs":[{"name":"attestation","type":"tuple","internalType":"struct DVNAttestationPOC.Attestation","components":[{"name":"verifier","type":"address","internalType":"address"},{"name":"isApproved","type":"bool","internalType":"bool"},{"name":"justificationURI","type":"string","internalType":"string"},{"name":"timestamp","type":"uint256","internalType":"uint256"},{"name":"signature","type":"bytes","internalType":"bytes"}]}],"stateMutability":"view"},{"type":"function","name":"getAttestationCount","inputs":[{"name":"poaId","type":"bytes32","internalType":"bytes32"}],"outputs":[{"name":"count","type":"uint256","internalType":"uint256"}],"stateMutability":"view"},{"type":"function","name":"getAttestations","inputs":[{"name":"poaId","type":"bytes32","internalType":"bytes32"}],"outputs":[{"name":"attestationList","type":"tuple[]","internalType":"struct DVNAttestationPOC.Attestation[]","components":[{"name":"verifier","type":"address","internalType":"address"},{"name":"isApproved","type":"bool","internalType":"bool"},{"name":"justificationURI","type":"string","internalType":"string"},{"name":"timestamp","type":"uint256","internalType":"uint256"},{"name":"signature","type":"bytes","internalType":"bytes"}]}],"stateMutability":"view"},{"type":"function","name":"getAttestorsByPoA","inputs":[{"name":"poaId","type":"bytes32","internalType":"bytes32"}],"outputs":[{"name":"attestors","type":"address[]","internalType":"address[]"}],"stateMutability":"view"},{"type":"function","name":"getContractStats","inputs":[],"outputs":[{"name":"totalAttestationsCount","type":"uint256","internalType":"uint256"},{"name":"openSubmissions","type":"uint256","internalType":"uint256"}],"stateMutability":"view"},{"type":"function","name":"getVerifierStats","inputs":[{"name":"verifier","type":"address","internalType":"address"}],"outputs":[{"name":"totalAttestationsCount","type":"uint256","internalType":"uint256"},{"name":"registrationTime","type":"uint256","internalType":"uint256"}],"stateMutability":"view"},{"type":"function","name":"hasSubmissionPendingAttestations","inputs":[{"name":"","type":"bytes32","internalType":"bytes32"}],"outputs":[{"name":"","type":"bool","internalType":"bool"}],"stateMutability":"view"},{"type":"function","name":"hasVerifierAttested","inputs":[{"name":"poaId","type":"bytes32","internalType":"bytes32"},{"name":"verifier","type":"address","internalType":"address"}],"outputs":[{"name":"hasAttested","type":"bool","internalType":"bool"}],"stateMutability":"view"},{"type":"function","name":"openSubmissionForAttestation","inputs":[{"name":"poaId","type":"bytes32","internalType":"bytes32"}],"outputs":[],"stateMutability":"nonpayable"},{"type":"function","name":"owner","inputs":[],"outputs":[{"name":"","type":"address","internalType":"address"}],"stateMutability":"view"},{"type":"function","name":"setDVNConsensusContract","inputs":[{"name":"_dvnConsensusContract","type":"address","internalType":"address"}],"outputs":[],"stateMutability":"nonpayable"},{"type":"function","name":"submitAttestation","inputs":[{"name":"poaId","type":"bytes32","internalType":"bytes32"},{"name":"isApproved","type":"bool","internalType":"bool"},{"name":"justificationURI","type":"string","internalType":"string"}],"outputs":[],"stateMutability":"nonpayable"},{"type":"function","name":"totalAttestations","inputs":[],"outputs":[{"name":"","type":"uint256","internalType":"uint256"}],"stateMutability":"view"},{"type":"function","name":"transferOwnership","inputs":[{"name":"newOwner","type":"address","internalType":"address"}],"outputs":[],"stateMutability":"nonpayable"},{"type":"function","name":"updateAttestation","inputs":[{"name":"poaId","type":"bytes32","internalType":"bytes32"},{"name":"newApproval","type":"bool","internalType":"bool"},{"name":"newJustificationURI","type":"string","internalType":"string"}],"outputs":[],"stateMutability":"nonpayable"},{"type":"function","name":"verifierAttestationCount","inputs":[{"name":"","type":"address","internalType":"address"}],"outputs":[{"name":"","type":"uint256","internalType":"uint256"}],"stateMutability":"view"},{"type":"function","name":"verifyAttestationSignature","inputs":[{"name":"poaId","type":"bytes32","internalType":"bytes32"},{"name":"va","type":"address","internalType":"address"},{"name":"signature","type":"bytes","internalType":"bytes"}],"outputs":[{"name":"isValid","type":"bool","internalType":"bool"}],"stateMutability":"pure"},{"type":"event","name":"AttestationSubmitted","inputs":[{"name":"poaId","type":"bytes32","indexed":true,"internalType":"bytes32"},{"name":"verifier","type":"address","indexed":true,"internalType":"address"},{"name":"isApproved","type":"bool","indexed":false,"internalType":"bool"},{"name":"justificationURI","type":"string","indexed":false,"internalType":"string"}],"anonymous":false},{"type":"event","name":"AttestationUpdated","inputs":[{"name":"poaId","type":"bytes32","indexed":true,"internalType":"bytes32"},{"name":"verifier","type":"address","indexed":true,"internalType":"address"},{"name":"wasApproved","type":"bool","indexed":false,"internalType":"bool"},{"name":"nowApproved","type":"bool","indexed":false,"internalType":"bool"}],"anonymous":false},{"type":"event","name":"SubmissionClosedForAttestation","inputs":[{"name":"poaId","type":"bytes32","indexed":true,"internalType":"bytes32"},{"name":"totalAttestors","type":"uint256","indexed":false,"internalType":"uint256"}],"anonymous":false},{"type":"event","name":"SubmissionOpenedForAttestation","inputs":[{"name":"poaId","type":"bytes32","indexed":true,"internalType":"bytes32"},{"name":"timestamp","type":"uint256","indexed":false,"internalType":"uint256"}],"anonymous":false}],"bytecode":{"object":"0x608034607e57601f61167138819003918201601f19168301916001600160401b03831184841017608257808492602094604052833981010312607e57516001600160a01b03811690819003607e57600580546001600160a01b03199081163317909155600380549091169190911790556040516115da90816100978239f35b5f80fd5b634e487b7160e01b5f52604160045260245ffdfe60806040526004361015610011575f80fd5b5f3560e01c8063085ad7e914610f245780631470509a14610ef5578063193f6b3414610df55780631b01a8ba14610d325780632f3a92c714610c6157806333ced3f214610c2557806337e59e3614610a575780634e64ad6014610a2f5780636048574214610a125780636fc43b5c146109dd57806374e424241461098d57806384887617146105e6578063878f3976146105ae5780638a7340d41461051a5780638da5cb5b146104f2578063ae380e2d14610429578063b121729f146103d9578063b33d729f14610309578063cf1aab9514610244578063dfe6b5d614610222578063e16fd27a146101fa578063f2fde38b146101705763ff7e32d914610116575f80fd5b3461016c57604036600319011261016c576004356101326111d7565b9061013e811515611394565b5f908152602081815260408083206001600160a01b0394851684528252918290205491519190921615158152f35b5f80fd5b3461016c57602036600319011261016c576101896111c1565b600554906101a1336001600160a01b0384161461154e565b6001600160a01b03169081156101c1576001600160a01b03191617600555005b60405162461bcd60e51b815260206004820152601160248201527024b73b30b634b2103732bb9037bbb732b960791b6044820152606490fd5b3461016c575f36600319011261016c576004546040516001600160a01b039091168152602090f35b3461016c575f36600319011261016c57604060065481519081525f6020820152f35b3461016c57604036600319011261016c5761025d6111d7565b6004355f525f60205260405f209060018060a01b03165f5260205260ff60405f2061030581549160036102f26040516102a48161029d81600188016112c7565b0382611116565b6102c46002850154946102bd60405180968193016112c7565b0384611116565b604080516001600160a01b038816815260a097881c90981615156020890152870186905286958601906111ed565b91606085015283820360808501526111ed565b0390f35b3461016c57602036600319011261016c5760043561033260018060a01b036004541633146114ae565b61033d811515611394565b805f52600260205260ff60405f20541661039457805f52600260205260405f20600160ff198254161790557fd1cd1c87dc2c50b26f931b3f644fb0f62eae64534457cad2dac4ebb620f5aee06020604051428152a2005b60405162461bcd60e51b815260206004820152601760248201527f5375626d697373696f6e20616c7265616479206f70656e0000000000000000006044820152606490fd5b3461016c57602036600319011261016c576103f26111c1565b61040760018060a01b0360055416331461154e565b600480546001600160a01b0319166001600160a01b0392909216919091179055005b3461016c57604036600319011261016c576004356104456111d7565b9061044e611524565b5061045a811515611394565b5f525f60205260405f209060018060a01b03165f5260205261030560405f2060036104d96040519261048b846110fa565b80546001600160a01b038116855260a01c60ff16151560208501526040516104ba8161029d81600186016112c7565b60408501526002810154606085015261029d60405180948193016112c7565b6080820152604051918291602083526020830190611211565b3461016c575f36600319011261016c576005546040516001600160a01b039091168152602090f35b3461016c57606036600319011261016c576105336111d7565b6044359067ffffffffffffffff821161016c573660238301121561016c5781600401359167ffffffffffffffff831161016c57602483369201011161016c57602091151590816105a2575b8161058f575b506040519015158152f35b6001600160a01b03161515905082610584565b6004351515915061057e565b3461016c57602036600319011261016c576001600160a01b036105cf6111c1565b165f526007602052602060405f2054604051908152f35b3461016c576105f436611138565b9190610601331515611348565b61060c821515611394565b5f828152602081815260408083203384529091529020546001600160a01b031661093357815f52600260205261064860ff60405f2054166113d1565b60405190610655826110fa565b33825260208201901515908181526040830192858452606081014281526020946106d3604051946106868887611116565b5f8087526080860196875289815280895260408082203383528a5290209451855491516001600160a81b03199092166001600160a01b03919091161790151560a01b60ff60a01b16178455565b518051600184019167ffffffffffffffff821161083f576106fe826106f8855461128f565b85611429565b8790601f83116001146108cc579180610732926003979695945f926108c1575b50508160011b915f199060031b1c19161790565b90555b51600282015501905180519067ffffffffffffffff821161083f5761075e826106f8855461128f565b8490601f831160011461085e5761078b92915f91836108535750508160011b915f199060031b1c19161790565b90555b825f526001825260405f20918254906801000000000000000082101561083f576107e1827f6aff9ccda5fcae56219cf3a6a1ccc2950e4281a07095443a5883c8c6eaadc4ed956001604095018155611266565b81546001600160a01b0360039290921b91821b19163390911b1790556006546108099061148c565b600655335f5260078152815f20610820815461148c565b905581519283528201528061083a339560408301906111ed565b0390a3005b634e487b7160e01b5f52604160045260245ffd5b01519050888061071e565b90601f19831691845f52865f20925f5b888282106108ab575050908460019594939210610893575b505050811b01905561078e565b01515f1960f88460031b161c19169055878080610886565b600185968293968601518155019501930161086e565b015190508c8061071e565b90601f19831691845f52895f20925f5b8b82821061091d5750509160019391856003999897969410610906575b505050811b019055610735565b01515f1983891b60f8161c191690558b80806108f9565b60018596829396860151815501950193016108dc565b60405162461bcd60e51b815260206004820152602c60248201527f566572696669657220616c726561647920617474657374656420746f2074686960448201526b399039bab136b4b9b9b4b7b760a11b6064820152608490fd5b3461016c57604036600319011261016c576024356004355f52600160205260405f20805482101561016c576020916109c491611266565b905460405160039290921b1c6001600160a01b03168152f35b3461016c57602036600319011261016c576004356109fc811515611394565b5f526001602052602060405f2054604051908152f35b3461016c575f36600319011261016c576020600654604051908152f35b3461016c575f36600319011261016c576003546040516001600160a01b039091168152602090f35b3461016c57602036600319011261016c57600435610a76811515611394565b805f52600160205260405f2090604051808360208295549384815201905f5260205f20925f5b818110610c03575050610ab192500383611116565b815191610abd8361150c565b92610acb6040519485611116565b808452610ada601f199161150c565b015f5b818110610bec5750505f5b8151811015610b85575f838152602081905260409020600191906001600160a01b03610b148386611478565b5116838060a01b03165f5260205260405f206003610b6460405192610b38846110fa565b60ff8154878060a01b038116865260a01c16151560208501526040516104ba8161029d818a86016112c7565b6080820152610b738287611478565b52610b7e8186611478565b5001610ae8565b836040518091602082016020835281518091526040830190602060408260051b8601019301915f905b828210610bbd57505050500390f35b91936001919395506020610bdc8192603f198a82030186528851611211565b9601920192018594939192610bae565b602090610bf7611524565b82828801015201610add565b84546001600160a01b0316835260019485019487945060209093019201610a9c565b3461016c57602036600319011261016c576001600160a01b03610c466111c1565b165f5260076020526040805f205481519081525f6020820152f35b3461016c57602036600319011261016c57600435610c8a60018060a01b036004541633146114ae565b610c95811515611394565b805f52600260205260ff60405f20541615610cf757805f52600260205260405f2060ff198154169055805f5260016020527f7540a61ac6c84efc4c4258b3c50c5e2c9dcabadf75650e9b88cf9ea8f6b9c3bb602060405f2054604051908152a2005b60405162461bcd60e51b815260206004820152601360248201527229bab136b4b9b9b4b7b7103737ba1037b832b760691b6044820152606490fd5b3461016c57602036600319011261016c57600435610d51811515611394565b5f52600160205260405f20604051806020835491828152019081935f5260205f20905f5b818110610dd65750505081610d8b910382611116565b604051918291602083019060208452518091526040830191905f5b818110610db4575050500390f35b82516001600160a01b0316845285945060209384019390920191600101610da6565b82546001600160a01b0316845260209093019260019283019201610d75565b3461016c57602036600319011261016c57600435610e14811515611394565b5f5f90825f52600160205260405f2091604051808460208296549384815201905f5260205f20925f5b818110610ed3575050610e5292500384611116565b5f915b8351831015610ec4575f8581526020819052604090206001600160a01b03610e7d8587611478565b511660018060a01b03165f5260205260ff60405f205460a01c165f14610eb157610ea860019161148c565b925b0191610e55565b9190610ebe60019161148c565b91610eaa565b60409182519182526020820152f35b84546001600160a01b0316835260019485019488945060209093019201610e3d565b3461016c57602036600319011261016c576004355f526002602052602060ff60405f2054166040519015158152f35b3461016c57610f3236611138565b9190610f3f331515611348565b610f4a821515611394565b815f526002602052610f6260ff60405f2054166113d1565b5f828152602081815260408083203384529091529020546001600160a01b0316156110b5575f828152602081815260408083203384529091529020805460ff60a01b19811683151560a090811b60ff60a01b169190911783551c60ff16938051600183019167ffffffffffffffff821161083f57610fe4826106f8855461128f565b602090601f83116001146110525761101292915f91836108535750508160011b915f199060031b1c19161790565b90555b6002429101556040519215158352151560208301527f61734c2bc0dcf4838daf7fb4626e281b18feee64c878649ca20dee8c26d9f84360403393a3005b90601f19831691845f52815f20925f5b81811061109d5750908460019594939210611085575b505050811b019055611015565b01515f1960f88460031b161c19169055878080611078565b92936020600181928786015181550195019301611062565b60405162461bcd60e51b815260206004820152601760248201527f4e6f206578697374696e67206174746573746174696f6e0000000000000000006044820152606490fd5b60a0810190811067ffffffffffffffff82111761083f57604052565b90601f8019910116810190811067ffffffffffffffff82111761083f57604052565b606060031982011261016c5760043591602435801515810361016c579160443567ffffffffffffffff811161016c578160238201121561016c5780600401359067ffffffffffffffff821161083f576040519261119f601f8401601f191660200185611116565b8284526024838301011161016c57815f92602460209301838601378301015290565b600435906001600160a01b038216820361016c57565b602435906001600160a01b038216820361016c57565b805180835260209291819084018484015e5f828201840152601f01601f1916010190565b6112639160018060a01b0382511681526020820151151560208201526080611248604084015160a0604085015260a08401906111ed565b926060810151606084015201519060808184039101526111ed565b90565b805482101561127b575f5260205f2001905f90565b634e487b7160e01b5f52603260045260245ffd5b90600182811c921680156112bd575b60208310146112a957565b634e487b7160e01b5f52602260045260245ffd5b91607f169161129e565b5f92918154916112d68361128f565b808352926001811690811561132b57506001146112f257505050565b5f9081526020812093945091925b838310611311575060209250010190565b600181602092949394548385870101520191019190611300565b915050602093945060ff929192191683830152151560051b010190565b1561134f57565b60405162461bcd60e51b815260206004820152601860248201527f496e76616c6964207665726966696572206164647265737300000000000000006044820152606490fd5b1561139b57565b60405162461bcd60e51b815260206004820152600e60248201526d125b9d985b1a5908141bd048125160921b6044820152606490fd5b156113d857565b60405162461bcd60e51b8152602060048201526024808201527f5375626d697373696f6e206e6f74206f70656e20666f72206174746573746174604482015263696f6e7360e01b6064820152608490fd5b601f821161143657505050565b5f5260205f20906020601f840160051c8301931061146e575b601f0160051c01905b818110611463575050565b5f8155600101611458565b909150819061144f565b805182101561127b5760209160051b010190565b5f19811461149a5760010190565b634e487b7160e01b5f52601160045260245ffd5b156114b557565b60405162461bcd60e51b815260206004820152602960248201527f4f6e6c792044564e20636f6e73656e73757320636f6e74726163742063616e2060448201526863616c6c207468697360b81b6064820152608490fd5b67ffffffffffffffff811161083f5760051b60200190565b60405190611531826110fa565b60606080835f81525f60208201528260408201525f838201520152565b1561155557565b60405162461bcd60e51b815260206004820152602160248201527f4f6e6c79206f776e65722063616e2063616c6c20746869732066756e6374696f6044820152603760f91b6064820152608490fdfea2646970667358221220cda5583a800a0d98d5b5d597377c64bdcc842142859e3c2b3cc4af35516bb16464736f6c634300081c0033","linkReferences":{}},"methodIdentifiers":{"attestations(bytes32,address)":"cf1aab95","attestorsByPoA(bytes32,uint256)":"74e42424","closeSubmissionForAttestation(bytes32)":"2f3a92c7","dvnConsensusContract()":"e16fd27a","dvnRegistryContract()":"4e64ad60","getApprovalCounts(bytes32)":"193f6b34","getAttestationByVerifier(bytes32,address)":"ae380e2d","getAttestationCount(bytes32)":"6fc43b5c","getAttestations(bytes32)":"37e59e36","getAttestorsByPoA(bytes32)":"1b01a8ba","getContractStats()":"dfe6b5d6","getVerifierStats(address)":"33ced3f2","hasSubmissionPendingAttestations(bytes32)":"1470509a","hasVerifierAttested(bytes32,address)":"ff7e32d9","openSubmissionForAttestation(bytes32)":"b33d729f","owner()":"8da5cb5b","setDVNConsensusContract(address)":"b121729f","submitAttestation(bytes32,bool,string)":"84887617","totalAttestations()":"60485742","transferOwnership(address)":"f2fde38b","updateAttestation(bytes32,bool,string)":"085ad7e9","verifierAttestationCount(address)":"878f3976","verifyAttestationSignature(bytes32,address,bytes)":"8a7340d4"},"id":0}